{
  "contractName": "WhaleCrowdsale",
  "abi": [
    {
      "constant": true,
      "inputs": [],
      "name": "rate",
      "outputs": [
        {
          "name": "",
          "type": "uint256"
        }
      ],
      "payable": false,
      "stateMutability": "view",
      "type": "function"
    },
    {
      "constant": true,
      "inputs": [],
      "name": "endTime",
      "outputs": [
        {
          "name": "",
          "type": "uint256"
        }
      ],
      "payable": false,
      "stateMutability": "view",
      "type": "function"
    },
    {
      "constant": true,
      "inputs": [],
      "name": "cap",
      "outputs": [
        {
          "name": "",
          "type": "uint256"
        }
      ],
      "payable": false,
      "stateMutability": "view",
      "type": "function"
    },
    {
      "constant": true,
      "inputs": [],
      "name": "goal",
      "outputs": [
        {
          "name": "",
          "type": "uint256"
        }
      ],
      "payable": false,
      "stateMutability": "view",
      "type": "function"
    },
    {
      "constant": true,
      "inputs": [],
      "name": "weiRaised",
      "outputs": [
        {
          "name": "",
          "type": "uint256"
        }
      ],
      "payable": false,
      "stateMutability": "view",
      "type": "function"
    },
    {
      "constant": false,
      "inputs": [],
      "name": "finalize",
      "outputs": [],
      "payable": false,
      "stateMutability": "nonpayable",
      "type": "function"
    },
    {
      "constant": true,
      "inputs": [],
      "name": "wallet",
      "outputs": [
        {
          "name": "",
          "type": "address"
        }
      ],
      "payable": false,
      "stateMutability": "view",
      "type": "function"
    },
    {
      "constant": true,
      "inputs": [],
      "name": "startTime",
      "outputs": [
        {
          "name": "",
          "type": "uint256"
        }
      ],
      "payable": false,
      "stateMutability": "view",
      "type": "function"
    },
    {
      "constant": true,
      "inputs": [],
      "name": "goalReached",
      "outputs": [
        {
          "name": "",
          "type": "bool"
        }
      ],
      "payable": false,
      "stateMutability": "view",
      "type": "function"
    },
    {
      "constant": true,
      "inputs": [],
      "name": "isFinalized",
      "outputs": [
        {
          "name": "",
          "type": "bool"
        }
      ],
      "payable": false,
      "stateMutability": "view",
      "type": "function"
    },
    {
      "constant": true,
      "inputs": [],
      "name": "owner",
      "outputs": [
        {
          "name": "",
          "type": "address"
        }
      ],
      "payable": false,
      "stateMutability": "view",
      "type": "function"
    },
    {
      "constant": false,
      "inputs": [],
      "name": "claimRefund",
      "outputs": [],
      "payable": false,
      "stateMutability": "nonpayable",
      "type": "function"
    },
    {
      "constant": false,
      "inputs": [
        {
          "name": "beneficiary",
          "type": "address"
        }
      ],
      "name": "buyTokens",
      "outputs": [],
      "payable": true,
      "stateMutability": "payable",
      "type": "function"
    },
    {
      "constant": true,
      "inputs": [],
      "name": "hasEnded",
      "outputs": [
        {
          "name": "",
          "type": "bool"
        }
      ],
      "payable": false,
      "stateMutability": "view",
      "type": "function"
    },
    {
      "constant": false,
      "inputs": [
        {
          "name": "newOwner",
          "type": "address"
        }
      ],
      "name": "transferOwnership",
      "outputs": [],
      "payable": false,
      "stateMutability": "nonpayable",
      "type": "function"
    },
    {
      "constant": true,
      "inputs": [],
      "name": "vault",
      "outputs": [
        {
          "name": "",
          "type": "address"
        }
      ],
      "payable": false,
      "stateMutability": "view",
      "type": "function"
    },
    {
      "constant": true,
      "inputs": [],
      "name": "token",
      "outputs": [
        {
          "name": "",
          "type": "address"
        }
      ],
      "payable": false,
      "stateMutability": "view",
      "type": "function"
    },
    {
      "inputs": [
        {
          "name": "_startTime",
          "type": "uint256"
        },
        {
          "name": "_endTime",
          "type": "uint256"
        },
        {
          "name": "_rate",
          "type": "uint256"
        },
        {
          "name": "_goal",
          "type": "uint256"
        },
        {
          "name": "_cap",
          "type": "uint256"
        },
        {
          "name": "_wallet",
          "type": "address"
        }
      ],
      "payable": false,
      "stateMutability": "nonpayable",
      "type": "constructor"
    },
    {
      "payable": true,
      "stateMutability": "payable",
      "type": "fallback"
    },
    {
      "anonymous": false,
      "inputs": [],
      "name": "Finalized",
      "type": "event"
    },
    {
      "anonymous": false,
      "inputs": [
        {
          "indexed": true,
          "name": "previousOwner",
          "type": "address"
        },
        {
          "indexed": true,
          "name": "newOwner",
          "type": "address"
        }
      ],
      "name": "OwnershipTransferred",
      "type": "event"
    },
    {
      "anonymous": false,
      "inputs": [
        {
          "indexed": true,
          "name": "purchaser",
          "type": "address"
        },
        {
          "indexed": true,
          "name": "beneficiary",
          "type": "address"
        },
        {
          "indexed": false,
          "name": "value",
          "type": "uint256"
        },
        {
          "indexed": false,
          "name": "amount",
          "type": "uint256"
        }
      ],
      "name": "TokenPurchase",
      "type": "event"
    }
  ],
  "bytecode": "0x60606040526007805460a060020a60ff0219169055341561001f57600080fd5b60405160c08061272b833981016040528080519190602001805191906020018051919060200180519190602001805191906020018051915083905082878787854284101561006c57600080fd5b8383101561007957600080fd5b6000821161008657600080fd5b600160a060020a038116151561009b57600080fd5b6100b06401000000006107e061019882021704565b60008054600160a060020a0319908116600160a060020a039384161782556001969096556002949094556004929092556003805490941691161790915581116100f857600080fd5b60065560078054600160a060020a03191633600160a060020a03161790556000811161012357600080fd5b600354600160a060020a03166101376101bd565b600160a060020a039091168152602001604051809103906000f080151561015d57600080fd5b60098054600160a060020a031916600160a060020a03929092169190911790556008558183111561018d57600080fd5b5050505050506101dd565b60006101a26101cd565b604051809103906000f08015156101b857600080fd5b905090565b60405161060c806115a683390190565b604051610b7980611bb283390190565b6113ba806101ec6000396000f3006060604052600436106100d75763ffffffff60e060020a6000350416632c4e722e81146100e25780633197cbb614610107578063355274ea1461011a578063401938831461012d5780634042b66f146101405780634bb278f314610153578063521eb2731461016657806378e97925146101955780637d3d6522146101a85780638d4e4083146101cf5780638da5cb5b146101e2578063b5545a3c146101f5578063ec8ac4d814610208578063ecb70fb71461021c578063f2fde38b1461022f578063fbfa77cf1461024e578063fc0c546a14610261575b6100e033610274565b005b34156100ed57600080fd5b6100f56103a8565b60405190815260200160405180910390f35b341561011257600080fd5b6100f56103ae565b341561012557600080fd5b6100f56103b4565b341561013857600080fd5b6100f56103ba565b341561014b57600080fd5b6100f56103c0565b341561015e57600080fd5b6100e06103c6565b341561017157600080fd5b610179610465565b604051600160a060020a03909116815260200160405180910390f35b34156101a057600080fd5b6100f5610474565b34156101b357600080fd5b6101bb61047a565b604051901515815260200160405180910390f35b34156101da57600080fd5b6101bb610485565b34156101ed57600080fd5b610179610495565b341561020057600080fd5b6100e06104a4565b6100e0600160a060020a0360043516610274565b341561022757600080fd5b6101bb61052f565b341561023a57600080fd5b6100e0600160a060020a0360043516610551565b341561025957600080fd5b6101796105ec565b341561026c57600080fd5b6101796105fb565b600080600160a060020a038316151561028c57600080fd5b61029461060a565b151561029f57600080fd5b6004543492506102b690839063ffffffff61063d16565b6005549091506102cc908363ffffffff61067316565b60055560008054600160a060020a0316906340c10f1990859084906040516020015260405160e060020a63ffffffff8516028152600160a060020a0390921660048301526024820152604401602060405180830381600087803b151561033157600080fd5b6102c65a03f1151561034257600080fd5b505050604051805190505082600160a060020a031633600160a060020a03167f623b3804fa71d67900d064613da8f94b9617215ee90799290593e1745087ad18848460405191825260208201526040908101905180910390a36103a3610682565b505050565b60045481565b60025481565b60065481565b60085481565b60055481565b60075433600160a060020a039081169116146103e157600080fd5b60075460a060020a900460ff16156103f857600080fd5b61040061052f565b151561040b57600080fd5b6104136106e9565b7f6823b073d48d6e3a7d385eeb601452d680e74bb46afe3255a7d778f3a9b1768160405160405180910390a16007805474ff0000000000000000000000000000000000000000191660a060020a179055565b600354600160a060020a031681565b60015481565b600854600554101590565b60075460a060020a900460ff1681565b600754600160a060020a031681565b60075460a060020a900460ff1615156104bc57600080fd5b6104c461047a565b156104ce57600080fd5b600954600160a060020a031663fa89401a3360405160e060020a63ffffffff8416028152600160a060020a039091166004820152602401600060405180830381600087803b151561051e57600080fd5b6102c65a03f115156103a357600080fd5b6006546005546000919010156105436107a8565b8061054b5750805b91505090565b60075433600160a060020a0390811691161461056c57600080fd5b600160a060020a038116151561058157600080fd5b600754600160a060020a0380831691167f8be0079c531659141344cd1fd0a4f28419497f9722a3daafe3b4186f6b6457e060405160405180910390a36007805473ffffffffffffffffffffffffffffffffffffffff1916600160a060020a0392909216919091179055565b600954600160a060020a031681565b600054600160a060020a031681565b6000806006546106253460055461067390919063ffffffff16565b111590506106316107b0565b801561054b5750919050565b600080831515610650576000915061066c565b5082820282848281151561066057fe5b041461066857fe5b8091505b5092915050565b60008282018381101561066857fe5b600954600160a060020a031663f340fa01343360405160e060020a63ffffffff8516028152600160a060020a0390911660048201526024016000604051808303818588803b15156106d257600080fd5b6125ee5a03f115156106e357600080fd5b50505050565b6106f161047a565b1561074e57600954600160a060020a03166343d726d66040518163ffffffff1660e060020a028152600401600060405180830381600087803b151561073557600080fd5b6102c65a03f1151561074657600080fd5b5050506107a2565b600954600160a060020a0316638c52dc416040518163ffffffff1660e060020a028152600401600060405180830381600087803b151561078d57600080fd5b6102c65a03f1151561079e57600080fd5b5050505b6107a65b565b600254421190565b600080600060015442101580156107c957506002544211155b9150503415158180156107d95750805b9250505090565b60006107ea610805565b604051809103906000f080151561080057600080fd5b905090565b604051610b7980610816833901905600606060405260038054600160a860020a03191633600160a060020a0316179055610b4b8061002e6000396000f3006060604052600436106100e55763ffffffff7c010000000000000000000000000000000000000000000000000000000060003504166305d2035b81146100ea57806306fdde0314610111578063095ea7b31461019b57806318160ddd146101bd57806323b872dd146101e2578063313ce5671461020a57806340c10f191461021d578063661884631461023f57806370a08231146102615780637d64bcb4146102805780638da5cb5b1461029357806395d89b41146102c2578063a9059cbb146102d5578063d73dd623146102f7578063dd62ed3e14610319578063f2fde38b1461033e575b600080fd5b34156100f557600080fd5b6100fd61035f565b604051901515815260200160405180910390f35b341561011c57600080fd5b61012461036f565b60405160208082528190810183818151815260200191508051906020019080838360005b83811015610160578082015183820152602001610148565b50505050905090810190601f16801561018d5780820380516001836020036101000a031916815260200191505b509250505060405180910390f35b34156101a657600080fd5b6100fd600160a060020a03600435166024356103a6565b34156101c857600080fd5b6101d0610412565b60405190815260200160405180910390f35b34156101ed57600080fd5b6100fd600160a060020a0360043581169060243516604435610418565b341561021557600080fd5b6101d061059a565b341561022857600080fd5b6100fd600160a060020a036004351660243561059f565b341561024a57600080fd5b6100fd600160a060020a03600435166024356106ac565b341561026c57600080fd5b6101d0600160a060020a03600435166107a6565b341561028b57600080fd5b6100fd6107c1565b341561029e57600080fd5b6102a661084c565b604051600160a060020a03909116815260200160405180910390f35b34156102cd57600080fd5b61012461085b565b34156102e057600080fd5b6100fd600160a060020a0360043516602435610892565b341561030257600080fd5b6100fd600160a060020a036004351660243561098d565b341561032457600080fd5b6101d0600160a060020a0360043581169060243516610a31565b341561034957600080fd5b61035d600160a060020a0360043516610a5c565b005b60035460a060020a900460ff1681565b60408051908101604052600a81527f5768616c65546f6b656e00000000000000000000000000000000000000000000602082015281565b600160a060020a03338116600081815260026020908152604080832094871680845294909152808220859055909291907f8c5be1e5ebec7d5bd14f71427d1e84f3dd0314c0f7b2291e5b200ac8c7c3b9259085905190815260200160405180910390a350600192915050565b60005481565b6000600160a060020a038316151561042f57600080fd5b600160a060020a03841660009081526001602052604090205482111561045457600080fd5b600160a060020a038085166000908152600260209081526040808320339094168352929052205482111561048757600080fd5b600160a060020a0384166000908152600160205260409020546104b0908363ffffffff610af716565b600160a060020a0380861660009081526001602052604080822093909355908516815220546104e5908363ffffffff610b0916565b600160a060020a0380851660009081526001602090815260408083209490945587831682526002815283822033909316825291909152205461052d908363ffffffff610af716565b600160a060020a03808616600081815260026020908152604080832033861684529091529081902093909355908516917fddf252ad1be2c89b69c2b068fc378daa952ba7f163c4a11628f55a4df523b3ef9085905190815260200160405180910390a35060019392505050565b601281565b60035460009033600160a060020a039081169116146105bd57600080fd5b60035460a060020a900460ff16156105d457600080fd5b6000546105e7908363ffffffff610b0916565b6000908155600160a060020a038416815260016020526040902054610612908363ffffffff610b0916565b600160a060020a0384166000818152600160205260409081902092909255907f0f6798a560793a54c3bcfe86a93cde1e73087d944c0ea20544137d41213968859084905190815260200160405180910390a2600160a060020a03831660007fddf252ad1be2c89b69c2b068fc378daa952ba7f163c4a11628f55a4df523b3ef8460405190815260200160405180910390a350600192915050565b600160a060020a0333811660009081526002602090815260408083209386168352929052908120548083111561070957600160a060020a033381166000908152600260209081526040808320938816835292905290812055610740565b610719818463ffffffff610af716565b600160a060020a033381166000908152600260209081526040808320938916835292905220555b600160a060020a0333811660008181526002602090815260408083209489168084529490915290819020547f8c5be1e5ebec7d5bd14f71427d1e84f3dd0314c0f7b2291e5b200ac8c7c3b925915190815260200160405180910390a35060019392505050565b600160a060020a031660009081526001602052604090205490565b60035460009033600160a060020a039081169116146107df57600080fd5b60035460a060020a900460ff16156107f657600080fd5b6003805474ff0000000000000000000000000000000000000000191660a060020a1790557fae5184fba832cb2b1f702aca6117b8d265eaf03ad33eb133f19dde0f5920fa0860405160405180910390a150600190565b600354600160a060020a031681565b60408051908101604052600581527f5748414c45000000000000000000000000000000000000000000000000000000602082015281565b6000600160a060020a03831615156108a957600080fd5b600160a060020a0333166000908152600160205260409020548211156108ce57600080fd5b600160a060020a0333166000908152600160205260409020546108f7908363ffffffff610af716565b600160a060020a03338116600090815260016020526040808220939093559085168152205461092c908363ffffffff610b0916565b600160a060020a0380851660008181526001602052604090819020939093559133909116907fddf252ad1be2c89b69c2b068fc378daa952ba7f163c4a11628f55a4df523b3ef9085905190815260200160405180910390a350600192915050565b600160a060020a0333811660009081526002602090815260408083209386168352929052908120546109c5908363ffffffff610b0916565b600160a060020a0333811660008181526002602090815260408083209489168084529490915290819020849055919290917f8c5be1e5ebec7d5bd14f71427d1e84f3dd0314c0f7b2291e5b200ac8c7c3b92591905190815260200160405180910390a350600192915050565b600160a060020a03918216600090815260026020908152604080832093909416825291909152205490565b60035433600160a060020a03908116911614610a7757600080fd5b600160a060020a0381161515610a8c57600080fd5b600354600160a060020a0380831691167f8be0079c531659141344cd1fd0a4f28419497f9722a3daafe3b4186f6b6457e060405160405180910390a36003805473ffffffffffffffffffffffffffffffffffffffff1916600160a060020a0392909216919091179055565b600082821115610b0357fe5b50900390565b600082820183811015610b1857fe5b93925050505600a165627a7a72305820b9f4cb6d99d3e123eb3e9a7038fcd80a438d8ecd87381527f4bdf5e5a111b1c00029a165627a7a72305820508e33411652c354907624a58a0e5deec50ff39497d761e93330563f71ef4c4b00296060604052341561000f57600080fd5b60405160208061060c8339810160405280805160008054600160a060020a03191633600160a060020a039081169190911790915590925082161515905061005557600080fd5b60028054600160a060020a031916600160a060020a03929092169190911760a060020a60ff021916905561057e8061008e6000396000f3006060604052600436106100985763ffffffff7c010000000000000000000000000000000000000000000000000000000060003504166343d726d6811461009d578063521eb273146100b25780638c52dc41146100e15780638da5cb5b146100f4578063c19d93fb14610107578063cb13cddb1461013e578063f2fde38b1461016f578063f340fa011461018e578063fa89401a146101a2575b600080fd5b34156100a857600080fd5b6100b06101c1565b005b34156100bd57600080fd5b6100c561029c565b604051600160a060020a03909116815260200160405180910390f35b34156100ec57600080fd5b6100b06102ab565b34156100ff57600080fd5b6100c561033c565b341561011257600080fd5b61011a61034b565b6040518082600281111561012a57fe5b60ff16815260200191505060405180910390f35b341561014957600080fd5b61015d600160a060020a036004351661035b565b60405190815260200160405180910390f35b341561017a57600080fd5b6100b0600160a060020a036004351661036d565b6100b0600160a060020a0360043516610408565b34156101ad57600080fd5b6100b0600160a060020a036004351661048c565b60005433600160a060020a039081169116146101dc57600080fd5b60006002805460a060020a900460ff16908111156101f657fe5b1461020057600080fd5b6002805474ff00000000000000000000000000000000000000001916740200000000000000000000000000000000000000001790557f1cdde67b72a90f19919ac732a437ac2f7a10fc128d28c2a6e525d89ce5cd9d3a60405160405180910390a1600254600160a060020a039081169030163180156108fc0290604051600060405180830381858888f19350505050151561029a57600080fd5b565b600254600160a060020a031681565b60005433600160a060020a039081169116146102c657600080fd5b60006002805460a060020a900460ff16908111156102e057fe5b146102ea57600080fd5b6002805474ff0000000000000000000000000000000000000000191660a060020a1790557f599d8e5a83cffb867d051598c4d70e805d59802d8081c1c7d6dffc5b6aca2b8960405160405180910390a1565b600054600160a060020a031681565b60025460a060020a900460ff1681565b60016020526000908152604090205481565b60005433600160a060020a0390811691161461038857600080fd5b600160a060020a038116151561039d57600080fd5b600054600160a060020a0380831691167f8be0079c531659141344cd1fd0a4f28419497f9722a3daafe3b4186f6b6457e060405160405180910390a36000805473ffffffffffffffffffffffffffffffffffffffff1916600160a060020a0392909216919091179055565b60005433600160a060020a0390811691161461042357600080fd5b60006002805460a060020a900460ff169081111561043d57fe5b1461044757600080fd5b600160a060020a038116600090815260016020526040902054610470903463ffffffff61053c16565b600160a060020a03909116600090815260016020526040902055565b600060016002805460a060020a900460ff16908111156104a857fe5b146104b257600080fd5b50600160a060020a038116600081815260016020526040808220805492905590919082156108fc0290839051600060405180830381858888f1935050505015156104fb57600080fd5b81600160a060020a03167fd7dee2702d63ad89917b6a4da9981c90c4d24f8c2bdfd64c604ecae57d8d06518260405190815260200160405180910390a25050565b60008282018381101561054b57fe5b93925050505600a165627a7a72305820b275974688f037b488146289ceb926584b3323febeb882aeae13bf10f90e62ab0029606060405260038054600160a860020a03191633600160a060020a0316179055610b4b8061002e6000396000f3006060604052600436106100e55763ffffffff7c010000000000000000000000000000000000000000000000000000000060003504166305d2035b81146100ea57806306fdde0314610111578063095ea7b31461019b57806318160ddd146101bd57806323b872dd146101e2578063313ce5671461020a57806340c10f191461021d578063661884631461023f57806370a08231146102615780637d64bcb4146102805780638da5cb5b1461029357806395d89b41146102c2578063a9059cbb146102d5578063d73dd623146102f7578063dd62ed3e14610319578063f2fde38b1461033e575b600080fd5b34156100f557600080fd5b6100fd61035f565b604051901515815260200160405180910390f35b341561011c57600080fd5b61012461036f565b60405160208082528190810183818151815260200191508051906020019080838360005b83811015610160578082015183820152602001610148565b50505050905090810190601f16801561018d5780820380516001836020036101000a031916815260200191505b509250505060405180910390f35b34156101a657600080fd5b6100fd600160a060020a03600435166024356103a6565b34156101c857600080fd5b6101d0610412565b60405190815260200160405180910390f35b34156101ed57600080fd5b6100fd600160a060020a0360043581169060243516604435610418565b341561021557600080fd5b6101d061059a565b341561022857600080fd5b6100fd600160a060020a036004351660243561059f565b341561024a57600080fd5b6100fd600160a060020a03600435166024356106ac565b341561026c57600080fd5b6101d0600160a060020a03600435166107a6565b341561028b57600080fd5b6100fd6107c1565b341561029e57600080fd5b6102a661084c565b604051600160a060020a03909116815260200160405180910390f35b34156102cd57600080fd5b61012461085b565b34156102e057600080fd5b6100fd600160a060020a0360043516602435610892565b341561030257600080fd5b6100fd600160a060020a036004351660243561098d565b341561032457600080fd5b6101d0600160a060020a0360043581169060243516610a31565b341561034957600080fd5b61035d600160a060020a0360043516610a5c565b005b60035460a060020a900460ff1681565b60408051908101604052600a81527f5768616c65546f6b656e00000000000000000000000000000000000000000000602082015281565b600160a060020a03338116600081815260026020908152604080832094871680845294909152808220859055909291907f8c5be1e5ebec7d5bd14f71427d1e84f3dd0314c0f7b2291e5b200ac8c7c3b9259085905190815260200160405180910390a350600192915050565b60005481565b6000600160a060020a038316151561042f57600080fd5b600160a060020a03841660009081526001602052604090205482111561045457600080fd5b600160a060020a038085166000908152600260209081526040808320339094168352929052205482111561048757600080fd5b600160a060020a0384166000908152600160205260409020546104b0908363ffffffff610af716565b600160a060020a0380861660009081526001602052604080822093909355908516815220546104e5908363ffffffff610b0916565b600160a060020a0380851660009081526001602090815260408083209490945587831682526002815283822033909316825291909152205461052d908363ffffffff610af716565b600160a060020a03808616600081815260026020908152604080832033861684529091529081902093909355908516917fddf252ad1be2c89b69c2b068fc378daa952ba7f163c4a11628f55a4df523b3ef9085905190815260200160405180910390a35060019392505050565b601281565b60035460009033600160a060020a039081169116146105bd57600080fd5b60035460a060020a900460ff16156105d457600080fd5b6000546105e7908363ffffffff610b0916565b6000908155600160a060020a038416815260016020526040902054610612908363ffffffff610b0916565b600160a060020a0384166000818152600160205260409081902092909255907f0f6798a560793a54c3bcfe86a93cde1e73087d944c0ea20544137d41213968859084905190815260200160405180910390a2600160a060020a03831660007fddf252ad1be2c89b69c2b068fc378daa952ba7f163c4a11628f55a4df523b3ef8460405190815260200160405180910390a350600192915050565b600160a060020a0333811660009081526002602090815260408083209386168352929052908120548083111561070957600160a060020a033381166000908152600260209081526040808320938816835292905290812055610740565b610719818463ffffffff610af716565b600160a060020a033381166000908152600260209081526040808320938916835292905220555b600160a060020a0333811660008181526002602090815260408083209489168084529490915290819020547f8c5be1e5ebec7d5bd14f71427d1e84f3dd0314c0f7b2291e5b200ac8c7c3b925915190815260200160405180910390a35060019392505050565b600160a060020a031660009081526001602052604090205490565b60035460009033600160a060020a039081169116146107df57600080fd5b60035460a060020a900460ff16156107f657600080fd5b6003805474ff0000000000000000000000000000000000000000191660a060020a1790557fae5184fba832cb2b1f702aca6117b8d265eaf03ad33eb133f19dde0f5920fa0860405160405180910390a150600190565b600354600160a060020a031681565b60408051908101604052600581527f5748414c45000000000000000000000000000000000000000000000000000000602082015281565b6000600160a060020a03831615156108a957600080fd5b600160a060020a0333166000908152600160205260409020548211156108ce57600080fd5b600160a060020a0333166000908152600160205260409020546108f7908363ffffffff610af716565b600160a060020a03338116600090815260016020526040808220939093559085168152205461092c908363ffffffff610b0916565b600160a060020a0380851660008181526001602052604090819020939093559133909116907fddf252ad1be2c89b69c2b068fc378daa952ba7f163c4a11628f55a4df523b3ef9085905190815260200160405180910390a350600192915050565b600160a060020a0333811660009081526002602090815260408083209386168352929052908120546109c5908363ffffffff610b0916565b600160a060020a0333811660008181526002602090815260408083209489168084529490915290819020849055919290917f8c5be1e5ebec7d5bd14f71427d1e84f3dd0314c0f7b2291e5b200ac8c7c3b92591905190815260200160405180910390a350600192915050565b600160a060020a03918216600090815260026020908152604080832093909416825291909152205490565b60035433600160a060020a03908116911614610a7757600080fd5b600160a060020a0381161515610a8c57600080fd5b600354600160a060020a0380831691167f8be0079c531659141344cd1fd0a4f28419497f9722a3daafe3b4186f6b6457e060405160405180910390a36003805473ffffffffffffffffffffffffffffffffffffffff1916600160a060020a0392909216919091179055565b600082821115610b0357fe5b50900390565b600082820183811015610b1857fe5b93925050505600a165627a7a72305820b9f4cb6d99d3e123eb3e9a7038fcd80a438d8ecd87381527f4bdf5e5a111b1c00029",
  "source": "pragma solidity ^0.4.18;\n\nimport \"zeppelin-solidity/contracts/crowdsale/CappedCrowdsale.sol\";\nimport \"zeppelin-solidity/contracts/crowdsale/RefundableCrowdsale.sol\";\nimport \"zeppelin-solidity/contracts/token/MintableToken.sol\";\n\n/**\n * @title SampleCrowdsaleToken\n * @dev Very simple ERC20 Token that can be minted.\n * It is meant to be used in a crowdsale contract.\n */\ncontract WhaleCrowdsaleToken is MintableToken {\n\n  string public constant name = \"WhaleToken\";\n  string public constant symbol = \"WHALE\";\n  uint public constant decimals = 18;\n\n}\n\n/**\n * @title SampleCrowdsale\n * @dev This is an example of a fully fledged crowdsale.\n * The way to add new features to a base crowdsale is by multiple inheritance.\n * In this example we are providing following extensions:\n * CappedCrowdsale - sets a max boundary for raised funds\n * RefundableCrowdsale - set a min goal to be reached and returns funds if it's not met\n *\n * After adding multiple features it's good practice to run integration tests\n * to ensure that subcontracts works together as intended.\n */\ncontract WhaleCrowdsale is CappedCrowdsale, RefundableCrowdsale {\n\n  function WhaleCrowdsale(uint256 _startTime, uint256 _endTime, uint256 _rate, uint256 _goal, uint256 _cap, address _wallet) public\n  CappedCrowdsale(_cap)\n  FinalizableCrowdsale()\n  RefundableCrowdsale(_goal)\n  Crowdsale(_startTime, _endTime, _rate, _wallet)\n  {\n    //As goal needs to be met for a successful crowdsale\n    //the value needs to less or equal than a cap which is limit for accepted funds\n    require(_goal <= _cap);\n  }\n\n  function createTokenContract() internal returns (MintableToken) {\n    return new WhaleCrowdsaleToken();\n  }\n\n}\n",
  "sourcePath": "/Users/bernardpeh/WhaleToken/contracts/WhaleToken.sol",
  "compiler": {
    "name": "solc",
    "version": "0.4.18+commit.9cf6e910.Emscripten.clang"
  },
  "schemaVersion": "1.0.1",
  "updatedAt": "2018-01-26T06:41:53.300Z"
}